{
  "contractName": "SkyWorkStableCoin",
  "abi": [
    {
      "constant": true,
      "inputs": [],
      "name": "name",
      "outputs": [
        {
          "name": "",
          "type": "string"
        }
      ],
      "payable": false,
      "stateMutability": "view",
      "type": "function"
    },
    {
      "constant": true,
      "inputs": [],
      "name": "totalSupply",
      "outputs": [
        {
          "name": "",
          "type": "uint256"
        }
      ],
      "payable": false,
      "stateMutability": "view",
      "type": "function"
    },
    {
      "constant": true,
      "inputs": [],
      "name": "decimals",
      "outputs": [
        {
          "name": "",
          "type": "uint8"
        }
      ],
      "payable": false,
      "stateMutability": "view",
      "type": "function"
    },
    {
      "constant": true,
      "inputs": [
        {
          "name": "account",
          "type": "address"
        }
      ],
      "name": "isBlackLister",
      "outputs": [
        {
          "name": "",
          "type": "bool"
        }
      ],
      "payable": false,
      "stateMutability": "view",
      "type": "function"
    },
    {
      "constant": false,
      "inputs": [],
      "name": "unpause",
      "outputs": [],
      "payable": false,
      "stateMutability": "nonpayable",
      "type": "function"
    },
    {
      "constant": false,
      "inputs": [
        {
          "name": "account",
          "type": "address"
        },
        {
          "name": "amount",
          "type": "uint256"
        }
      ],
      "name": "mint",
      "outputs": [
        {
          "name": "",
          "type": "bool"
        }
      ],
      "payable": false,
      "stateMutability": "nonpayable",
      "type": "function"
    },
    {
      "constant": false,
      "inputs": [
        {
          "name": "amount",
          "type": "uint256"
        }
      ],
      "name": "burn",
      "outputs": [],
      "payable": false,
      "stateMutability": "nonpayable",
      "type": "function"
    },
    {
      "constant": true,
      "inputs": [
        {
          "name": "account",
          "type": "address"
        }
      ],
      "name": "isPauser",
      "outputs": [
        {
          "name": "",
          "type": "bool"
        }
      ],
      "payable": false,
      "stateMutability": "view",
      "type": "function"
    },
    {
      "constant": true,
      "inputs": [],
      "name": "paused",
      "outputs": [
        {
          "name": "",
          "type": "bool"
        }
      ],
      "payable": false,
      "stateMutability": "view",
      "type": "function"
    },
    {
      "constant": false,
      "inputs": [],
      "name": "renouncePauser",
      "outputs": [],
      "payable": false,
      "stateMutability": "nonpayable",
      "type": "function"
    },
    {
      "constant": true,
      "inputs": [
        {
          "name": "account",
          "type": "address"
        }
      ],
      "name": "balanceOf",
      "outputs": [
        {
          "name": "",
          "type": "uint256"
        }
      ],
      "payable": false,
      "stateMutability": "view",
      "type": "function"
    },
    {
      "constant": false,
      "inputs": [
        {
          "name": "account",
          "type": "address"
        },
        {
          "name": "amount",
          "type": "uint256"
        }
      ],
      "name": "burnFrom",
      "outputs": [],
      "payable": false,
      "stateMutability": "nonpayable",
      "type": "function"
    },
    {
      "constant": false,
      "inputs": [
        {
          "name": "account",
          "type": "address"
        }
      ],
      "name": "addPauser",
      "outputs": [],
      "payable": false,
      "stateMutability": "nonpayable",
      "type": "function"
    },
    {
      "constant": false,
      "inputs": [],
      "name": "pause",
      "outputs": [],
      "payable": false,
      "stateMutability": "nonpayable",
      "type": "function"
    },
    {
      "constant": true,
      "inputs": [],
      "name": "symbol",
      "outputs": [
        {
          "name": "",
          "type": "string"
        }
      ],
      "payable": false,
      "stateMutability": "view",
      "type": "function"
    },
    {
      "constant": false,
      "inputs": [
        {
          "name": "account",
          "type": "address"
        }
      ],
      "name": "addMinter",
      "outputs": [],
      "payable": false,
      "stateMutability": "nonpayable",
      "type": "function"
    },
    {
      "constant": false,
      "inputs": [],
      "name": "renounceMinter",
      "outputs": [],
      "payable": false,
      "stateMutability": "nonpayable",
      "type": "function"
    },
    {
      "constant": false,
      "inputs": [
        {
          "name": "account",
          "type": "address"
        }
      ],
      "name": "addBlackLister",
      "outputs": [],
      "payable": false,
      "stateMutability": "nonpayable",
      "type": "function"
    },
    {
      "constant": true,
      "inputs": [
        {
          "name": "account",
          "type": "address"
        }
      ],
      "name": "isMinter",
      "outputs": [
        {
          "name": "",
          "type": "bool"
        }
      ],
      "payable": false,
      "stateMutability": "view",
      "type": "function"
    },
    {
      "constant": true,
      "inputs": [
        {
          "name": "owner",
          "type": "address"
        },
        {
          "name": "spender",
          "type": "address"
        }
      ],
      "name": "allowance",
      "outputs": [
        {
          "name": "",
          "type": "uint256"
        }
      ],
      "payable": false,
      "stateMutability": "view",
      "type": "function"
    },
    {
      "constant": false,
      "inputs": [],
      "name": "renounceBlackLister",
      "outputs": [],
      "payable": false,
      "stateMutability": "nonpayable",
      "type": "function"
    },
    {
      "inputs": [
        {
          "name": "name",
          "type": "string"
        },
        {
          "name": "symbol",
          "type": "string"
        },
        {
          "name": "decimals",
          "type": "uint8"
        }
      ],
      "payable": false,
      "stateMutability": "nonpayable",
      "type": "constructor"
    },
    {
      "anonymous": false,
      "inputs": [
        {
          "indexed": true,
          "name": "account",
          "type": "address"
        }
      ],
      "name": "AddedToBlackList",
      "type": "event"
    },
    {
      "anonymous": false,
      "inputs": [
        {
          "indexed": true,
          "name": "account",
          "type": "address"
        }
      ],
      "name": "RemovedFromBlackList",
      "type": "event"
    },
    {
      "anonymous": false,
      "inputs": [
        {
          "indexed": true,
          "name": "account",
          "type": "address"
        },
        {
          "indexed": false,
          "name": "funds",
          "type": "uint256"
        }
      ],
      "name": "BlackFundsDestroyed",
      "type": "event"
    },
    {
      "anonymous": false,
      "inputs": [
        {
          "indexed": true,
          "name": "account",
          "type": "address"
        }
      ],
      "name": "BlackListerAdded",
      "type": "event"
    },
    {
      "anonymous": false,
      "inputs": [
        {
          "indexed": true,
          "name": "account",
          "type": "address"
        }
      ],
      "name": "BlackListerRemoved",
      "type": "event"
    },
    {
      "anonymous": false,
      "inputs": [
        {
          "indexed": false,
          "name": "account",
          "type": "address"
        }
      ],
      "name": "Paused",
      "type": "event"
    },
    {
      "anonymous": false,
      "inputs": [
        {
          "indexed": false,
          "name": "account",
          "type": "address"
        }
      ],
      "name": "Unpaused",
      "type": "event"
    },
    {
      "anonymous": false,
      "inputs": [
        {
          "indexed": true,
          "name": "account",
          "type": "address"
        }
      ],
      "name": "PauserAdded",
      "type": "event"
    },
    {
      "anonymous": false,
      "inputs": [
        {
          "indexed": true,
          "name": "account",
          "type": "address"
        }
      ],
      "name": "PauserRemoved",
      "type": "event"
    },
    {
      "anonymous": false,
      "inputs": [
        {
          "indexed": true,
          "name": "account",
          "type": "address"
        }
      ],
      "name": "MinterAdded",
      "type": "event"
    },
    {
      "anonymous": false,
      "inputs": [
        {
          "indexed": true,
          "name": "account",
          "type": "address"
        }
      ],
      "name": "MinterRemoved",
      "type": "event"
    },
    {
      "anonymous": false,
      "inputs": [
        {
          "indexed": true,
          "name": "from",
          "type": "address"
        },
        {
          "indexed": true,
          "name": "to",
          "type": "address"
        },
        {
          "indexed": false,
          "name": "value",
          "type": "uint256"
        }
      ],
      "name": "Transfer",
      "type": "event"
    },
    {
      "anonymous": false,
      "inputs": [
        {
          "indexed": true,
          "name": "owner",
          "type": "address"
        },
        {
          "indexed": true,
          "name": "spender",
          "type": "address"
        },
        {
          "indexed": false,
          "name": "value",
          "type": "uint256"
        }
      ],
      "name": "Approval",
      "type": "event"
    },
    {
      "constant": false,
      "inputs": [
        {
          "name": "account",
          "type": "address"
        }
      ],
      "name": "addToBlackList",
      "outputs": [],
      "payable": false,
      "stateMutability": "nonpayable",
      "type": "function"
    },
    {
      "constant": false,
      "inputs": [
        {
          "name": "account",
          "type": "address"
        }
      ],
      "name": "removeFromBlackList",
      "outputs": [],
      "payable": false,
      "stateMutability": "nonpayable",
      "type": "function"
    },
    {
      "constant": true,
      "inputs": [
        {
          "name": "account",
          "type": "address"
        }
      ],
      "name": "isBlackListed",
      "outputs": [
        {
          "name": "",
          "type": "bool"
        }
      ],
      "payable": false,
      "stateMutability": "view",
      "type": "function"
    },
    {
      "constant": false,
      "inputs": [
        {
          "name": "account",
          "type": "address"
        }
      ],
      "name": "destroyBlackFunds",
      "outputs": [],
      "payable": false,
      "stateMutability": "nonpayable",
      "type": "function"
    },
    {
      "constant": false,
      "inputs": [
        {
          "name": "to",
          "type": "address[]"
        },
        {
          "name": "value",
          "type": "uint256[]"
        }
      ],
      "name": "transferToMany",
      "outputs": [
        {
          "name": "",
          "type": "bool"
        }
      ],
      "payable": false,
      "stateMutability": "nonpayable",
      "type": "function"
    },
    {
      "constant": false,
      "inputs": [
        {
          "name": "to",
          "type": "address[]"
        },
        {
          "name": "value",
          "type": "uint256[]"
        }
      ],
      "name": "mintToMany",
      "outputs": [
        {
          "name": "",
          "type": "bool"
        }
      ],
      "payable": false,
      "stateMutability": "nonpayable",
      "type": "function"
    },
    {
      "constant": true,
      "inputs": [
        {
          "name": "account",
          "type": "address[]"
        }
      ],
      "name": "balanceOfMany",
      "outputs": [
        {
          "name": "",
          "type": "uint256[]"
        }
      ],
      "payable": false,
      "stateMutability": "view",
      "type": "function"
    },
    {
      "constant": false,
      "inputs": [
        {
          "name": "to",
          "type": "address"
        },
        {
          "name": "value",
          "type": "uint256"
        }
      ],
      "name": "transfer",
      "outputs": [
        {
          "name": "",
          "type": "bool"
        }
      ],
      "payable": false,
      "stateMutability": "nonpayable",
      "type": "function"
    },
    {
      "constant": false,
      "inputs": [
        {
          "name": "from",
          "type": "address"
        },
        {
          "name": "to",
          "type": "address"
        },
        {
          "name": "value",
          "type": "uint256"
        }
      ],
      "name": "transferFrom",
      "outputs": [
        {
          "name": "",
          "type": "bool"
        }
      ],
      "payable": false,
      "stateMutability": "nonpayable",
      "type": "function"
    },
    {
      "constant": false,
      "inputs": [
        {
          "name": "spender",
          "type": "address"
        },
        {
          "name": "value",
          "type": "uint256"
        }
      ],
      "name": "approve",
      "outputs": [
        {
          "name": "",
          "type": "bool"
        }
      ],
      "payable": false,
      "stateMutability": "nonpayable",
      "type": "function"
    },
    {
      "constant": false,
      "inputs": [
        {
          "name": "spender",
          "type": "address"
        },
        {
          "name": "addedValue",
          "type": "uint256"
        }
      ],
      "name": "increaseAllowance",
      "outputs": [
        {
          "name": "",
          "type": "bool"
        }
      ],
      "payable": false,
      "stateMutability": "nonpayable",
      "type": "function"
    },
    {
      "constant": false,
      "inputs": [
        {
          "name": "spender",
          "type": "address"
        },
        {
          "name": "subtractedValue",
          "type": "uint256"
        }
      ],
      "name": "decreaseAllowance",
      "outputs": [
        {
          "name": "",
          "type": "bool"
        }
      ],
      "payable": false,
      "stateMutability": "nonpayable",
      "type": "function"
    }
  ],
  "bytecode": "0x60806040523480156200001157600080fd5b5060405162004a7e38038062004a7e833981018060405260608110156200003757600080fd5b8101908080516401000000008111156200005057600080fd5b828101905060208101848111156200006757600080fd5b81518560018202830111640100000000821117156200008557600080fd5b50509291906020018051640100000000811115620000a257600080fd5b82810190506020810184811115620000b957600080fd5b8151856001820283011164010000000082111715620000d757600080fd5b5050929190602001805190602001909291905050508282826200010933620001b1640100000000026401000000009004565b82600490805190602001906200012192919062000502565b5081600590805190602001906200013a92919062000502565b5080600660006101000a81548160ff021916908360ff16021790555050505062000173336200021b640100000000026401000000009004565b6000600860006101000a81548160ff021916908315150217905550620001a83362000285640100000000026401000000009004565b505050620005b1565b620001d5816003620002ef6401000000000262003fd2179091906401000000009004565b8073ffffffffffffffffffffffffffffffffffffffff167f6ae172837ea30b801fbfcdd4108aa1d5bf8ff775444fd70256b44e6bf3dfc3f660405160405180910390a250565b6200023f816007620002ef6401000000000262003fd2179091906401000000009004565b8073ffffffffffffffffffffffffffffffffffffffff167f6719d08c1888103bea251a4ed56406bd0c3e69723c8a1686e017e7bbe159b6f860405160405180910390a250565b620002a9816009620002ef6401000000000262003fd2179091906401000000009004565b8073ffffffffffffffffffffffffffffffffffffffff167fb41bc3cdd4276b81dcdeb2f03c2457457661be122c22ade780eacc9398e9758260405160405180910390a250565b6200030a8282620003de640100000000026401000000009004565b15151562000380576040517f08c379a000000000000000000000000000000000000000000000000000000000815260040180806020018281038252601f8152602001807f526f6c65733a206163636f756e7420616c72656164792068617320726f6c650081525060200191505060405180910390fd5b60018260000160008373ffffffffffffffffffffffffffffffffffffffff1673ffffffffffffffffffffffffffffffffffffffff16815260200190815260200160002060006101000a81548160ff0219169083151502179055505050565b60008073ffffffffffffffffffffffffffffffffffffffff168273ffffffffffffffffffffffffffffffffffffffff1614151515620004ab576040517f08c379a00000000000000000000000000000000000000000000000000000000081526004018080602001828103825260228152602001807f526f6c65733a206163636f756e7420697320746865207a65726f20616464726581526020017f737300000000000000000000000000000000000000000000000000000000000081525060400191505060405180910390fd5b8260000160008373ffffffffffffffffffffffffffffffffffffffff1673ffffffffffffffffffffffffffffffffffffffff16815260200190815260200160002060009054906101000a900460ff16905092915050565b828054600181600116156101000203166002900490600052602060002090601f016020900481019282601f106200054557805160ff191683800117855562000576565b8280016001018555821562000576579182015b828111156200057557825182559160200191906001019062000558565b5b50905062000585919062000589565b5090565b620005ae91905b80821115620005aa57600081600090555060010162000590565b5090565b90565b6144bd80620005c16000396000f3fe6080604052600436106101a1576000357c0100000000000000000000000000000000000000000000000000000000900463ffffffff16806306fdde03146101a6578063095ea7b31461023657806318160ddd146102a957806323b872dd146102d4578063313ce56714610367578063339fbdbb1461039857806339509351146104015780633f4ba83a1461047457806340c10f191461048b578063417c73a7146104fe57806342966c681461054f57806346fbf68e1461058a5780634a49ac4c146105f35780635c975abb146106445780636ef8d66d1461067357806370a082311461068a57806379cc6790146106ef5780637c33ebfd1461074a57806382dc1ec4146108bb5780638456cb591461090c578063925247251461092357806395d89b4114610a94578063983b2d5614610b245780639865027514610b75578063a457c2d714610b8c578063a9059cbb14610bff578063a9a99c0d14610c72578063aa271e1a14610cc3578063d042e95a14610d2c578063dd62ed3e14610e46578063e47d606014610ecb578063e88193e814610f34578063f3bdc22814610f4b575b600080fd5b3480156101b257600080fd5b506101bb610f9c565b6040518080602001828103825283818151815260200191508051906020019080838360005b838110156101fb5780820151818401526020810190506101e0565b50505050905090810190601f1680156102285780820380516001836020036101000a031916815260200191505b509250505060405180910390f35b34801561024257600080fd5b5061028f6004803603604081101561025957600080fd5b81019080803573ffffffffffffffffffffffffffffffffffffffff1690602001909291908035906020019092919050505061103e565b604051808215151515815260200191505060405180910390f35b3480156102b557600080fd5b506102be611230565b6040518082815260200191505060405180910390f35b3480156102e057600080fd5b5061034d600480360360608110156102f757600080fd5b81019080803573ffffffffffffffffffffffffffffffffffffffff169060200190929190803573ffffffffffffffffffffffffffffffffffffffff1690602001909291908035906020019092919050505061123a565b604051808215151515815260200191505060405180910390f35b34801561037357600080fd5b5061037c61142e565b604051808260ff1660ff16815260200191505060405180910390f35b3480156103a457600080fd5b506103e7600480360360208110156103bb57600080fd5b81019080803573ffffffffffffffffffffffffffffffffffffffff169060200190929190505050611445565b604051808215151515815260200191505060405180910390f35b34801561040d57600080fd5b5061045a6004803603604081101561042457600080fd5b81019080803573ffffffffffffffffffffffffffffffffffffffff16906020019092919080359060200190929190505050611462565b604051808215151515815260200191505060405180910390f35b34801561048057600080fd5b50610489611654565b005b34801561049757600080fd5b506104e4600480360360408110156104ae57600080fd5b81019080803573ffffffffffffffffffffffffffffffffffffffff169060200190929190803590602001909291905050506117fb565b604051808215151515815260200191505060405180910390f35b34801561050a57600080fd5b5061054d6004803603602081101561052157600080fd5b81019080803573ffffffffffffffffffffffffffffffffffffffff1690602001909291905050506118b4565b005b34801561055b57600080fd5b506105886004803603602081101561057257600080fd5b8101908080359060200190929190505050611abd565b005b34801561059657600080fd5b506105d9600480360360208110156105ad57600080fd5b81019080803573ffffffffffffffffffffffffffffffffffffffff169060200190929190505050611aca565b604051808215151515815260200191505060405180910390f35b3480156105ff57600080fd5b506106426004803603602081101561061657600080fd5b81019080803573ffffffffffffffffffffffffffffffffffffffff169060200190929190505050611ae7565b005b34801561065057600080fd5b50610659611cf0565b604051808215151515815260200191505060405180910390f35b34801561067f57600080fd5b50610688611d07565b005b34801561069657600080fd5b506106d9600480360360208110156106ad57600080fd5b81019080803573ffffffffffffffffffffffffffffffffffffffff169060200190929190505050611d12565b6040518082815260200191505060405180910390f35b3480156106fb57600080fd5b506107486004803603604081101561071257600080fd5b81019080803573ffffffffffffffffffffffffffffffffffffffff16906020019092919080359060200190929190505050611d5a565b005b34801561075657600080fd5b506108a16004803603604081101561076d57600080fd5b810190808035906020019064010000000081111561078a57600080fd5b82018360208201111561079c57600080fd5b803590602001918460208302840111640100000000831117156107be57600080fd5b919080806020026020016040519081016040528093929190818152602001838360200280828437600081840152601f19601f8201169050808301925050505050505091929192908035906020019064010000000081111561081e57600080fd5b82018360208201111561083057600080fd5b8035906020019184602083028401116401000000008311171561085257600080fd5b919080806020026020016040519081016040528093929190818152602001838360200280828437600081840152601f19601f820116905080830192505050505050509192919290505050611d68565b604051808215151515815260200191505060405180910390f35b3480156108c757600080fd5b5061090a600480360360208110156108de57600080fd5b81019080803573ffffffffffffffffffffffffffffffffffffffff16906020019092919050505061207d565b005b34801561091857600080fd5b5061092161212c565b005b34801561092f57600080fd5b50610a7a6004803603604081101561094657600080fd5b810190808035906020019064010000000081111561096357600080fd5b82018360208201111561097557600080fd5b8035906020019184602083028401116401000000008311171561099757600080fd5b919080806020026020016040519081016040528093929190818152602001838360200280828437600081840152601f19601f820116905080830192505050505050509192919290803590602001906401000000008111156109f757600080fd5b820183602082011115610a0957600080fd5b80359060200191846020830284011164010000000083111715610a2b57600080fd5b919080806020026020016040519081016040528093929190818152602001838360200280828437600081840152601f19601f8201169050808301925050505050505091929192905050506122d4565b604051808215151515815260200191505060405180910390f35b348015610aa057600080fd5b50610aa96125e9565b6040518080602001828103825283818151815260200191508051906020019080838360005b83811015610ae9578082015181840152602081019050610ace565b50505050905090810190601f168015610b165780820380516001836020036101000a031916815260200191505b509250505060405180910390f35b348015610b3057600080fd5b50610b7360048036036020811015610b4757600080fd5b81019080803573ffffffffffffffffffffffffffffffffffffffff16906020019092919050505061268b565b005b348015610b8157600080fd5b50610b8a61273a565b005b348015610b9857600080fd5b50610be560048036036040811015610baf57600080fd5b81019080803573ffffffffffffffffffffffffffffffffffffffff16906020019092919080359060200190929190505050612745565b604051808215151515815260200191505060405180910390f35b348015610c0b57600080fd5b50610c5860048036036040811015610c2257600080fd5b81019080803573ffffffffffffffffffffffffffffffffffffffff16906020019092919080359060200190929190505050612937565b604051808215151515815260200191505060405180910390f35b348015610c7e57600080fd5b50610cc160048036036020811015610c9557600080fd5b81019080803573ffffffffffffffffffffffffffffffffffffffff169060200190929190505050612b28565b005b348015610ccf57600080fd5b50610d1260048036036020811015610ce657600080fd5b81019080803573ffffffffffffffffffffffffffffffffffffffff169060200190929190505050612bd7565b604051808215151515815260200191505060405180910390f35b348015610d3857600080fd5b50610def60048036036020811015610d4f57600080fd5b8101908080359060200190640100000000811115610d6c57600080fd5b820183602082011115610d7e57600080fd5b80359060200191846020830284011164010000000083111715610da057600080fd5b919080806020026020016040519081016040528093929190818152602001838360200280828437600081840152601f19601f820116905080830192505050505050509192919290505050612bf4565b6040518080602001828103825283818151815260200191508051906020019060200280838360005b83811015610e32578082015181840152602081019050610e17565b505050509050019250505060405180910390f35b348015610e5257600080fd5b50610eb560048036036040811015610e6957600080fd5b81019080803573ffffffffffffffffffffffffffffffffffffffff169060200190929190803573ffffffffffffffffffffffffffffffffffffffff169060200190929190505050612c8c565b6040518082815260200191505060405180910390f35b348015610ed757600080fd5b50610f1a60048036036020811015610eee57600080fd5b81019080803573ffffffffffffffffffffffffffffffffffffffff169060200190929190505050612d13565b604051808215151515815260200191505060405180910390f35b348015610f4057600080fd5b50610f49612d69565b005b348015610f5757600080fd5b50610f9a60048036036020811015610f6e57600080fd5b81019080803573ffffffffffffffffffffffffffffffffffffffff169060200190929190505050612d74565b005b606060048054600181600116156101000203166002900480601f0160208091040260200160405190810160405280929190818152602001828054600181600116156101000203166002900480156110345780601f1061100957610100808354040283529160200191611034565b820191906000526020600020905b81548152906001019060200180831161101757829003601f168201915b5050505050905090565b60008260001515600a60003373ffffffffffffffffffffffffffffffffffffffff1673ffffffffffffffffffffffffffffffffffffffff16815260200190815260200160002060009054906101000a900460ff16151514151561112f576040517f08c379a00000000000000000000000000000000000000000000000000000000081526004018080602001828103825260228152602001807f5472616e73616374696f6e2053656e64657220697320426c61636b204c69737481526020017f656400000000000000000000000000000000000000000000000000000000000081525060400191505060405180910390fd5b60001515600a60008373ffffffffffffffffffffffffffffffffffffffff1673ffffffffffffffffffffffffffffffffffffffff16815260200190815260200160002060009054906101000a900460ff16151514151561121d576040517f08c379a00000000000000000000000000000000000000000000000000000000081526004018080602001828103825260238152602001807f5472616e73616374696f6e205265636976657220697320426c61636b204c697381526020017f746564000000000000000000000000000000000000000000000000000000000081525060400191505060405180910390fd5b6112278484612f48565b91505092915050565b6000600254905090565b60008260001515600a60003373ffffffffffffffffffffffffffffffffffffffff1673ffffffffffffffffffffffffffffffffffffffff16815260200190815260200160002060009054906101000a900460ff16151514151561132b576040517f08c379a00000000000000000000000000000000000000000000000000000000081526004018080602001828103825260228152602001807f5472616e73616374696f6e2053656e64657220697320426c61636b204c69737481526020017f656400000000000000000000000000000000000000000000000000000000000081525060400191505060405180910390fd5b60001515600a60008373ffffffffffffffffffffffffffffffffffffffff1673ffffffffffffffffffffffffffffffffffffffff16815260200190815260200160002060009054906101000a900460ff161515141515611419576040517f08c379a00000000000000000000000000000000000000000000000000000000081526004018080602001828103825260238152602001807f5472616e73616374696f6e205265636976657220697320426c61636b204c697381526020017f746564000000000000000000000000000000000000000000000000000000000081525060400191505060405180910390fd5b611424858585612fe1565b9150509392505050565b6000600660009054906101000a900460ff16905090565b600061145b82600961307c90919063ffffffff16565b9050919050565b60008260001515600a60003373ffffffffffffffffffffffffffffffffffffffff1673ffffffffffffffffffffffffffffffffffffffff16815260200190815260200160002060009054906101000a900460ff161515141515611553576040517f08c379a00000000000000000000000000000000000000000000000000000000081526004018080602001828103825260228152602001807f5472616e73616374696f6e2053656e64657220697320426c61636b204c69737481526020017f656400000000000000000000000000000000000000000000000000000000000081525060400191505060405180910390fd5b60001515600a60008373ffffffffffffffffffffffffffffffffffffffff1673ffffffffffffffffffffffffffffffffffffffff16815260200190815260200160002060009054906101000a900460ff161515141515611641576040517f08c379a00000000000000000000000000000000000000000000000000000000081526004018080602001828103825260238152602001807f5472616e73616374696f6e205265636976657220697320426c61636b204c697381526020017f746564000000000000000000000000000000000000000000000000000000000081525060400191505060405180910390fd5b61164b848461319f565b91505092915050565b61165d33611aca565b15156116f7576040517f08c379a00000000000000000000000000000000000000000000000000000000081526004018080602001828103825260308152602001807f506175736572526f6c653a2063616c6c657220646f6573206e6f74206861766581526020017f207468652050617573657220726f6c650000000000000000000000000000000081525060400191505060405180910390fd5b600860009054906101000a900460ff16151561177b576040517f08c379a00000000000000000000000000000000000000000000000000000000081526004018080602001828103825260148152602001807f5061757361626c653a206e6f742070617573656400000000000000000000000081525060200191505060405180910390fd5b6000600860006101000a81548160ff0219169083151502179055507f5db9ee0a495bf2e6ff9c91a7834c1ba4fdd244a5e8aa4e537bd38aeae4b073aa33604051808273ffffffffffffffffffffffffffffffffffffffff1673ffffffffffffffffffffffffffffffffffffffff16815260200191505060405180910390a1565b600061180633612bd7565b15156118a0576040517f08c379a00000000000000000000000000000000000000000000000000000000081526004018080602001828103825260308152602001807f4d696e746572526f6c653a2063616c6c657220646f6573206e6f74206861766581526020017f20746865204d696e74657220726f6c650000000000000000000000000000000081525060400191505060405180910390fd5b6118aa8383613238565b6001905092915050565b6118bd33611445565b1515611957576040517f08c379a000000000000000000000000000000000000000000000000000000000815260040180806020018281038252603a8152602001807f426c61636b4c6973746572526f6c653a2063616c6c657220646f6573206e6f7481526020017f20686176652074686520426c61636b4c697374657220726f6c6500000000000081525060400191505060405180910390fd5b60001515600a60008373ffffffffffffffffffffffffffffffffffffffff1673ffffffffffffffffffffffffffffffffffffffff16815260200190815260200160002060009054906101000a900460ff161515141515611a1f576040517f08c379a000000000000000000000000000000000000000000000000000000000815260040180806020018281038252601e8152602001807f4163636f756e7420697320616c726561647920626c61636b6c6973746564000081525060200191505060405180910390fd5b6001600a60008373ffffffffffffffffffffffffffffffffffffffff1673ffffffffffffffffffffffffffffffffffffffff16815260200190815260200160002060006101000a81548160ff0219169083151502179055508073ffffffffffffffffffffffffffffffffffffffff167f83f4fb4e43c8e9d38b6fa4c441afe892be28f9724b9c128fb99dfee430f60e0860405160405180910390a250565b611ac733826133f5565b50565b6000611ae082600761307c90919063ffffffff16565b9050919050565b611af033611445565b1515611b8a576040517f08c379a000000000000000000000000000000000000000000000000000000000815260040180806020018281038252603a8152602001807f426c61636b4c6973746572526f6c653a2063616c6c657220646f6573206e6f7481526020017f20686176652074686520426c61636b4c697374657220726f6c6500000000000081525060400191505060405180910390fd5b60011515600a60008373ffffffffffffffffffffffffffffffffffffffff1673ffffffffffffffffffffffffffffffffffffffff16815260200190815260200160002060009054906101000a900460ff161515141515611c52576040517f08c379a000000000000000000000000000000000000000000000000000000000815260040180806020018281038252601a8152602001807f4163636f756e74206973206e6f7420626c61636b6c697374656400000000000081525060200191505060405180910390fd5b6000600a60008373ffffffffffffffffffffffffffffffffffffffff1673ffffffffffffffffffffffffffffffffffffffff16815260200190815260200160002060006101000a81548160ff0219169083151502179055508073ffffffffffffffffffffffffffffffffffffffff167fa5d874c36615fb5b3b7b19ec879ee123ce071c81392af0dea8c60f4fcdf1864960405160405180910390a250565b6000600860009054906101000a900460ff16905090565b611d10336135d8565b565b60008060008373ffffffffffffffffffffffffffffffffffffffff1673ffffffffffffffffffffffffffffffffffffffff168152602001908152602001600020549050919050565b611d648282613632565b5050565b60008260008151905060001515600a60003373ffffffffffffffffffffffffffffffffffffffff1673ffffffffffffffffffffffffffffffffffffffff16815260200190815260200160002060009054906101000a900460ff161515141515611e5f576040517f08c379a00000000000000000000000000000000000000000000000000000000081526004018080602001828103825260228152602001807f5472616e73616374696f6e2053656e64657220697320426c61636b204c69737481526020017f656400000000000000000000000000000000000000000000000000000000000081525060400191505060405180910390fd5b60008090505b81811015611f7f5760001515600a60008584815181101515611e8357fe5b9060200190602002015173ffffffffffffffffffffffffffffffffffffffff1673ffffffffffffffffffffffffffffffffffffffff16815260200190815260200160002060009054906101000a900460ff161515141515611f72576040517f08c379a00000000000000000000000000000000000000000000000000000000081526004018080602001828103825260238152602001807f5472616e73616374696f6e205265636976657220697320426c61636b204c697381526020017f746564000000000000000000000000000000000000000000000000000000000081525060400191505060405180910390fd5b8080600101915050611e65565b508351855114151561201f576040517f08c379a000000000000000000000000000000000000000000000000000000000815260040180806020018281038252602c8152602001807f546f20617272617920616e642056616c7565206172726179206c656e6774682081526020017f646f206e6f74206d61746368000000000000000000000000000000000000000081525060400191505060405180910390fd5b60008090505b855181101561207457612066868281518110151561203f57fe5b90602001906020020151868381518110151561205757fe5b90602001906020020151612937565b508080600101915050612025565b50505092915050565b61208633611aca565b1515612120576040517f08c379a00000000000000000000000000000000000000000000000000000000081526004018080602001828103825260308152602001807f506175736572526f6c653a2063616c6c657220646f6573206e6f74206861766581526020017f207468652050617573657220726f6c650000000000000000000000000000000081525060400191505060405180910390fd5b612129816136d9565b50565b61213533611aca565b15156121cf576040517f08c379a00000000000000000000000000000000000000000000000000000000081526004018080602001828103825260308152602001807f506175736572526f6c653a2063616c6c657220646f6573206e6f74206861766581526020017f207468652050617573657220726f6c650000000000000000000000000000000081525060400191505060405180910390fd5b600860009054906101000a900460ff16151515612254576040517f08c379a00000000000000000000000000000000000000000000000000000000081526004018080602001828103825260108152602001807f5061757361626c653a207061757365640000000000000000000000000000000081525060200191505060405180910390fd5b6001600860006101000a81548160ff0219169083151502179055507f62e78cea01bee320cd4e420270b5ea74000d11b0c9f74754ebdbfc544b05a25833604051808273ffffffffffffffffffffffffffffffffffffffff1673ffffffffffffffffffffffffffffffffffffffff16815260200191505060405180910390a1565b60008260008151905060001515600a60003373ffffffffffffffffffffffffffffffffffffffff1673ffffffffffffffffffffffffffffffffffffffff16815260200190815260200160002060009054906101000a900460ff1615151415156123cb576040517f08c379a00000000000000000000000000000000000000000000000000000000081526004018080602001828103825260228152602001807f5472616e73616374696f6e2053656e64657220697320426c61636b204c69737481526020017f656400000000000000000000000000000000000000000000000000000000000081525060400191505060405180910390fd5b60008090505b818110156124eb5760001515600a600085848151811015156123ef57fe5b9060200190602002015173ffffffffffffffffffffffffffffffffffffffff1673ffffffffffffffffffffffffffffffffffffffff16815260200190815260200160002060009054906101000a900460ff1615151415156124de576040517f08c379a00000000000000000000000000000000000000000000000000000000081526004018080602001828103825260238152602001807f5472616e73616374696f6e205265636976657220697320426c61636b204c697381526020017f746564000000000000000000000000000000000000000000000000000000000081525060400191505060405180910390fd5b80806001019150506123d1565b508351855114151561258b576040517f08c379a000000000000000000000000000000000000000000000000000000000815260040180806020018281038252602c8152602001807f546f20617272617920616e642056616c7565206172726179206c656e6774682081526020017f646f206e6f74206d61746368000000000000000000000000000000000000000081525060400191505060405180910390fd5b60008090505b85518110156125e0576125d286828151811015156125ab57fe5b9060200190602002015186838151811015156125c357fe5b906020019060200201516117fb565b508080600101915050612591565b50505092915050565b606060058054600181600116156101000203166002900480601f0160208091040260200160405190810160405280929190818152602001828054600181600116156101000203166002900480156126815780601f1061265657610100808354040283529160200191612681565b820191906000526020600020905b81548152906001019060200180831161266457829003601f168201915b5050505050905090565b61269433612bd7565b151561272e576040517f08c379a00000000000000000000000000000000000000000000000000000000081526004018080602001828103825260308152602001807f4d696e746572526f6c653a2063616c6c657220646f6573206e6f74206861766581526020017f20746865204d696e74657220726f6c650000000000000000000000000000000081525060400191505060405180910390fd5b61273781613733565b50565b6127433361378d565b565b60008260001515600a60003373ffffffffffffffffffffffffffffffffffffffff1673ffffffffffffffffffffffffffffffffffffffff16815260200190815260200160002060009054906101000a900460ff161515141515612836576040517f08c379a00000000000000000000000000000000000000000000000000000000081526004018080602001828103825260228152602001807f5472616e73616374696f6e2053656e64657220697320426c61636b204c69737481526020017f656400000000000000000000000000000000000000000000000000000000000081525060400191505060405180910390fd5b60001515600a60008373ffffffffffffffffffffffffffffffffffffffff1673ffffffffffffffffffffffffffffffffffffffff16815260200190815260200160002060009054906101000a900460ff161515141515612924576040517f08c379a00000000000000000000000000000000000000000000000000000000081526004018080602001828103825260238152602001807f5472616e73616374696f6e205265636976657220697320426c61636b204c697381526020017f746564000000000000000000000000000000000000000000000000000000000081525060400191505060405180910390fd5b61292e84846137e7565b91505092915050565b60008260001515600a60003373ffffffffffffffffffffffffffffffffffffffff1673ffffffffffffffffffffffffffffffffffffffff16815260200190815260200160002060009054906101000a900460ff161515141515612a28576040517f08c379a00000000000000000000000000000000000000000000000000000000081526004018080602001828103825260228152602001807f5472616e73616374696f6e2053656e64657220697320426c61636b204c69737481526020017f656400000000000000000000000000000000000000000000000000000000000081525060400191505060405180910390fd5b60001515600a60008373ffffffffffffffffffffffffffffffffffffffff1673ffffffffffffffffffffffffffffffffffffffff16815260200190815260200160002060009054906101000a900460ff161515141515612b16576040517f08c379a00000000000000000000000000000000000000000000000000000000081526004018080602001828103825260238152602001807f5472616e73616374696f6e205265636976657220697320426c61636b204c697381526020017f746564000000000000000000000000000000000000000000000000000000000081525060400191505060405180910390fd5b612b208484613880565b505092915050565b612b3133611445565b1515612bcb576040517f08c379a000000000000000000000000000000000000000000000000000000000815260040180806020018281038252603a8152602001807f426c61636b4c6973746572526f6c653a2063616c6c657220646f6573206e6f7481526020017f20686176652074686520426c61636b4c697374657220726f6c6500000000000081525060400191505060405180910390fd5b612bd481613919565b50565b6000612bed82600361307c90919063ffffffff16565b9050919050565b6060808251604051908082528060200260200182016040528015612c275781602001602082028038833980820191505090505b50905060008090505b8351811015612c8257612c598482815181101515612c4a57fe5b90602001906020020151611d12565b8282815181101515612c6757fe5b90602001906020020181815250508080600101915050612c30565b5080915050919050565b6000600160008473ffffffffffffffffffffffffffffffffffffffff1673ffffffffffffffffffffffffffffffffffffffff16815260200190815260200160002060008373ffffffffffffffffffffffffffffffffffffffff1673ffffffffffffffffffffffffffffffffffffffff16815260200190815260200160002054905092915050565b6000600a60008373ffffffffffffffffffffffffffffffffffffffff1673ffffffffffffffffffffffffffffffffffffffff16815260200190815260200160002060009054906101000a900460ff169050919050565b612d7233613973565b565b612d7d33611445565b1515612e17576040517f08c379a000000000000000000000000000000000000000000000000000000000815260040180806020018281038252603a8152602001807f426c61636b4c6973746572526f6c653a2063616c6c657220646f6573206e6f7481526020017f20686176652074686520426c61636b4c697374657220726f6c6500000000000081525060400191505060405180910390fd5b60011515600a60008373ffffffffffffffffffffffffffffffffffffffff1673ffffffffffffffffffffffffffffffffffffffff16815260200190815260200160002060009054906101000a900460ff161515141515612edf576040517f08c379a000000000000000000000000000000000000000000000000000000000815260040180806020018281038252601a8152602001807f4163636f756e74206973206e6f7420626c61636b6c697374656400000000000081525060200191505060405180910390fd5b6000612eea82611d12565b9050612ef682826133f5565b8173ffffffffffffffffffffffffffffffffffffffff167fb75973bd2c1c5ab88f6b9c63c7ec73c8c977f6f7919200604deedf8a55d0df98826040518082815260200191505060405180910390a25050565b6000600860009054906101000a900460ff16151515612fcf576040517f08c379a00000000000000000000000000000000000000000000000000000000081526004018080602001828103825260108152602001807f5061757361626c653a207061757365640000000000000000000000000000000081525060200191505060405180910390fd5b612fd983836139cd565b905092915050565b6000600860009054906101000a900460ff16151515613068576040517f08c379a00000000000000000000000000000000000000000000000000000000081526004018080602001828103825260108152602001807f5061757361626c653a207061757365640000000000000000000000000000000081525060200191505060405180910390fd5b6130738484846139e4565b90509392505050565b60008073ffffffffffffffffffffffffffffffffffffffff168273ffffffffffffffffffffffffffffffffffffffff1614151515613148576040517f08c379a00000000000000000000000000000000000000000000000000000000081526004018080602001828103825260228152602001807f526f6c65733a206163636f756e7420697320746865207a65726f20616464726581526020017f737300000000000000000000000000000000000000000000000000000000000081525060400191505060405180910390fd5b8260000160008373ffffffffffffffffffffffffffffffffffffffff1673ffffffffffffffffffffffffffffffffffffffff16815260200190815260200160002060009054906101000a900460ff16905092915050565b6000600860009054906101000a900460ff16151515613226576040517f08c379a00000000000000000000000000000000000000000000000000000000081526004018080602001828103825260108152602001807f5061757361626c653a207061757365640000000000000000000000000000000081525060200191505060405180910390fd5b6132308383613a95565b905092915050565b600073ffffffffffffffffffffffffffffffffffffffff168273ffffffffffffffffffffffffffffffffffffffff16141515156132dd576040517f08c379a000000000000000000000000000000000000000000000000000000000815260040180806020018281038252601f8152602001807f45524332303a206d696e7420746f20746865207a65726f20616464726573730081525060200191505060405180910390fd5b6132f281600254613b3a90919063ffffffff16565b600281905550613349816000808573ffffffffffffffffffffffffffffffffffffffff1673ffffffffffffffffffffffffffffffffffffffff16815260200190815260200160002054613b3a90919063ffffffff16565b6000808473ffffffffffffffffffffffffffffffffffffffff1673ffffffffffffffffffffffffffffffffffffffff168152602001908152602001600020819055508173ffffffffffffffffffffffffffffffffffffffff16600073ffffffffffffffffffffffffffffffffffffffff167fddf252ad1be2c89b69c2b068fc378daa952ba7f163c4a11628f55a4df523b3ef836040518082815260200191505060405180910390a35050565b600073ffffffffffffffffffffffffffffffffffffffff168273ffffffffffffffffffffffffffffffffffffffff16141515156134c0576040517f08c379a00000000000000000000000000000000000000000000000000000000081526004018080602001828103825260218152602001807f45524332303a206275726e2066726f6d20746865207a65726f2061646472657381526020017f730000000000000000000000000000000000000000000000000000000000000081525060400191505060405180910390fd5b6134d581600254613bc490919063ffffffff16565b60028190555061352c816000808573ffffffffffffffffffffffffffffffffffffffff1673ffffffffffffffffffffffffffffffffffffffff16815260200190815260200160002054613bc490919063ffffffff16565b6000808473ffffffffffffffffffffffffffffffffffffffff1673ffffffffffffffffffffffffffffffffffffffff16815260200190815260200160002081905550600073ffffffffffffffffffffffffffffffffffffffff168273ffffffffffffffffffffffffffffffffffffffff167fddf252ad1be2c89b69c2b068fc378daa952ba7f163c4a11628f55a4df523b3ef836040518082815260200191505060405180910390a35050565b6135ec816007613c4f90919063ffffffff16565b8073ffffffffffffffffffffffffffffffffffffffff167fcd265ebaf09df2871cc7bd4133404a235ba12eff2041bb89d9c714a2621c7c7e60405160405180910390a250565b61363c82826133f5565b6136d582336136d084600160008873ffffffffffffffffffffffffffffffffffffffff1673ffffffffffffffffffffffffffffffffffffffff16815260200190815260200160002060003373ffffffffffffffffffffffffffffffffffffffff1673ffffffffffffffffffffffffffffffffffffffff16815260200190815260200160002054613bc490919063ffffffff16565b613d51565b5050565b6136ed816007613fd290919063ffffffff16565b8073ffffffffffffffffffffffffffffffffffffffff167f6719d08c1888103bea251a4ed56406bd0c3e69723c8a1686e017e7bbe159b6f860405160405180910390a250565b613747816003613fd290919063ffffffff16565b8073ffffffffffffffffffffffffffffffffffffffff167f6ae172837ea30b801fbfcdd4108aa1d5bf8ff775444fd70256b44e6bf3dfc3f660405160405180910390a250565b6137a1816003613c4f90919063ffffffff16565b8073ffffffffffffffffffffffffffffffffffffffff167fe94479a9f7e1952cc78f2d6baab678adc1b772d936c6583def489e524cb6669260405160405180910390a250565b6000600860009054906101000a900460ff1615151561386e576040517f08c379a00000000000000000000000000000000000000000000000000000000081526004018080602001828103825260108152602001807f5061757361626c653a207061757365640000000000000000000000000000000081525060200191505060405180910390fd5b61387883836140af565b905092915050565b6000600860009054906101000a900460ff16151515613907576040517f08c379a00000000000000000000000000000000000000000000000000000000081526004018080602001828103825260108152602001807f5061757361626c653a207061757365640000000000000000000000000000000081525060200191505060405180910390fd5b6139118383614154565b905092915050565b61392d816009613fd290919063ffffffff16565b8073ffffffffffffffffffffffffffffffffffffffff167fb41bc3cdd4276b81dcdeb2f03c2457457661be122c22ade780eacc9398e9758260405160405180910390a250565b613987816009613c4f90919063ffffffff16565b8073ffffffffffffffffffffffffffffffffffffffff167f607ec77f7f06689ae7a01995caa85bbfcf586a9139e10f97347c90aa8cadd50960405160405180910390a250565b60006139da338484613d51565b6001905092915050565b60006139f184848461416b565b613a8a8433613a8585600160008a73ffffffffffffffffffffffffffffffffffffffff1673ffffffffffffffffffffffffffffffffffffffff16815260200190815260200160002060003373ffffffffffffffffffffffffffffffffffffffff1673ffffffffffffffffffffffffffffffffffffffff16815260200190815260200160002054613bc490919063ffffffff16565b613d51565b600190509392505050565b6000613b303384613b2b85600160003373ffffffffffffffffffffffffffffffffffffffff1673ffffffffffffffffffffffffffffffffffffffff16815260200190815260200160002060008973ffffffffffffffffffffffffffffffffffffffff1673ffffffffffffffffffffffffffffffffffffffff16815260200190815260200160002054613b3a90919063ffffffff16565b613d51565b6001905092915050565b6000808284019050838110151515613bba576040517f08c379a000000000000000000000000000000000000000000000000000000000815260040180806020018281038252601b8152602001807f536166654d6174683a206164646974696f6e206f766572666c6f77000000000081525060200191505060405180910390fd5b8091505092915050565b6000828211151515613c3e576040517f08c379a000000000000000000000000000000000000000000000000000000000815260040180806020018281038252601e8152602001807f536166654d6174683a207375627472616374696f6e206f766572666c6f77000081525060200191505060405180910390fd5b600082840390508091505092915050565b613c59828261307c565b1515613cf3576040517f08c379a00000000000000000000000000000000000000000000000000000000081526004018080602001828103825260218152602001807f526f6c65733a206163636f756e7420646f6573206e6f74206861766520726f6c81526020017f650000000000000000000000000000000000000000000000000000000000000081525060400191505060405180910390fd5b60008260000160008373ffffffffffffffffffffffffffffffffffffffff1673ffffffffffffffffffffffffffffffffffffffff16815260200190815260200160002060006101000a81548160ff0219169083151502179055505050565b600073ffffffffffffffffffffffffffffffffffffffff168373ffffffffffffffffffffffffffffffffffffffff1614151515613e1c576040517f08c379a00000000000000000000000000000000000000000000000000000000081526004018080602001828103825260248152602001807f45524332303a20617070726f76652066726f6d20746865207a65726f2061646481526020017f726573730000000000000000000000000000000000000000000000000000000081525060400191505060405180910390fd5b600073ffffffffffffffffffffffffffffffffffffffff168273ffffffffffffffffffffffffffffffffffffffff1614151515613ee7576040517f08c379a00000000000000000000000000000000000000000000000000000000081526004018080602001828103825260228152602001807f45524332303a20617070726f766520746f20746865207a65726f20616464726581526020017f737300000000000000000000000000000000000000000000000000000000000081525060400191505060405180910390fd5b80600160008573ffffffffffffffffffffffffffffffffffffffff1673ffffffffffffffffffffffffffffffffffffffff16815260200190815260200160002060008473ffffffffffffffffffffffffffffffffffffffff1673ffffffffffffffffffffffffffffffffffffffff168152602001908152602001600020819055508173ffffffffffffffffffffffffffffffffffffffff168373ffffffffffffffffffffffffffffffffffffffff167f8c5be1e5ebec7d5bd14f71427d1e84f3dd0314c0f7b2291e5b200ac8c7c3b925836040518082815260200191505060405180910390a3505050565b613fdc828261307c565b151515614051576040517f08c379a000000000000000000000000000000000000000000000000000000000815260040180806020018281038252601f8152602001807f526f6c65733a206163636f756e7420616c72656164792068617320726f6c650081525060200191505060405180910390fd5b60018260000160008373ffffffffffffffffffffffffffffffffffffffff1673ffffffffffffffffffffffffffffffffffffffff16815260200190815260200160002060006101000a81548160ff0219169083151502179055505050565b600061414a338461414585600160003373ffffffffffffffffffffffffffffffffffffffff1673ffffffffffffffffffffffffffffffffffffffff16815260200190815260200160002060008973ffffffffffffffffffffffffffffffffffffffff1673ffffffffffffffffffffffffffffffffffffffff16815260200190815260200160002054613bc490919063ffffffff16565b613d51565b6001905092915050565b600061416133848461416b565b6001905092915050565b600073ffffffffffffffffffffffffffffffffffffffff168373ffffffffffffffffffffffffffffffffffffffff1614151515614236576040517f08c379a00000000000000000000000000000000000000000000000000000000081526004018080602001828103825260258152602001807f45524332303a207472616e736665722066726f6d20746865207a65726f20616481526020017f647265737300000000000000000000000000000000000000000000000000000081525060400191505060405180910390fd5b600073ffffffffffffffffffffffffffffffffffffffff168273ffffffffffffffffffffffffffffffffffffffff1614151515614301576040517f08c379a00000000000000000000000000000000000000000000000000000000081526004018080602001828103825260238152602001807f45524332303a207472616e7366657220746f20746865207a65726f206164647281526020017f657373000000000000000000000000000000000000000000000000000000000081525060400191505060405180910390fd5b614352816000808673ffffffffffffffffffffffffffffffffffffffff1673ffffffffffffffffffffffffffffffffffffffff16815260200190815260200160002054613bc490919063ffffffff16565b6000808573ffffffffffffffffffffffffffffffffffffffff1673ffffffffffffffffffffffffffffffffffffffff168152602001908152602001600020819055506143e5816000808573ffffffffffffffffffffffffffffffffffffffff1673ffffffffffffffffffffffffffffffffffffffff16815260200190815260200160002054613b3a90919063ffffffff16565b6000808473ffffffffffffffffffffffffffffffffffffffff1673ffffffffffffffffffffffffffffffffffffffff168152602001908152602001600020819055508173ffffffffffffffffffffffffffffffffffffffff168373ffffffffffffffffffffffffffffffffffffffff167fddf252ad1be2c89b69c2b068fc378daa952ba7f163c4a11628f55a4df523b3ef836040518082815260200191505060405180910390a350505056fea165627a7a72305820bb2ca20d8e69d25f24b13f0688c282e4203662c891e98a8195ff2c35fd066adb0029",
  "source": "pragma solidity 0.5.0;\r\n\r\nimport \"../node_modules/openzeppelin-solidity/contracts/token/ERC20/ERC20Mintable.sol\";\r\nimport \"../node_modules/openzeppelin-solidity/contracts/token/ERC20/ERC20Burnable.sol\";\r\nimport \"../node_modules/openzeppelin-solidity/contracts/token/ERC20/ERC20Pausable.sol\";\r\nimport \"../node_modules/openzeppelin-solidity/contracts/token/ERC20/ERC20Detailed.sol\";\r\nimport \"../node_modules/openzeppelin-solidity/contracts/token/ERC20/ERC20Pausable.sol\";\r\nimport \"./BlackListerRole.sol\";\r\n\r\n\r\n/**\r\n * @title SkyWork Stable Coin\r\n *\r\n * @notice Smart Contract provides ERC20 functionality with\r\n *         an option to pause, unpause, mint, burn tokens.\r\n *         It also allows to blacklist user and burn their tokens.\r\n * @author Robert Magier\r\n */\r\n\r\ncontract SkyWorkStableCoin is ERC20Burnable, ERC20Mintable,ERC20Detailed, ERC20Pausable, BlackListerRole {\r\n\r\n\r\n    event AddedToBlackList(address indexed account);\r\n    event RemovedFromBlackList(address indexed account);\r\n    event BlackFundsDestroyed(address indexed account, uint256 funds);\r\n\r\n\r\n    mapping(address=>bool) private _blacklist;\r\n\r\n    /**\r\n    * @notice SkyWork Stabel Coin constructor.\r\n    * @dev Constructor calls ERC20Detailed constructor to set name, symbol and decimals.\r\n    * @param name ERC20 token name\r\n    * @param symbol ERC20 Symbol\r\n    * @param decimals number of decimals\r\n     */\r\n\r\n    constructor(string memory name, string memory symbol,uint8 decimals) public\r\n    ERC20Detailed(name, symbol, decimals)\r\n    {\r\n        return;\r\n    }\r\n\r\n    /**\r\n    * @notice Adds user account to the blacklist.\r\n    * @param account User address to add to blacklist\r\n    * @dev Can be only called by account having BlackLister Role\r\n     */\r\n    function addToBlackList(address account) public onlyBlackLister {\r\n        require(_blacklist[account] == false, \"Account is already blacklisted\");\r\n        _blacklist[account] = true;\r\n        emit AddedToBlackList(account);\r\n    }\r\n\r\n    /**\r\n    @notice Remove user from blacklist.\r\n    @dev You can remove only this user which was before to the blacklist. In other case it will throw an error.\r\n    @param account address of an account to remove from the blacklist.\r\n     */\r\n    function removeFromBlackList(address account) public onlyBlackLister {\r\n        require(_blacklist[account] == true, \"Account is not blacklisted\");\r\n        _blacklist[account] = false;\r\n        emit RemovedFromBlackList(account);\r\n    }\r\n\r\n    /**\r\n    * @notice Returns true if user is blacklisted.\r\n    * @param account address of an account to check if was added to the blacklist.\r\n    * @return true if user was addded to the blacklist and false if wasn't.\r\n     */\r\n    function isBlackListed(address account) public view returns(bool) {\r\n        return _blacklist[account];\r\n    }\r\n\r\n        /**\r\n     * @dev Modifier to make a function callable only when the sender and receiver is not on the blacklist.\r\n     */\r\n    modifier notBlackListed(address _receiver) {\r\n        require(_blacklist[msg.sender] == false, \"Transaction Sender is Black Listed\");\r\n        require(_blacklist[_receiver] == false, \"Transaction Reciver is Black Listed\");\r\n        _;\r\n    }\r\n\r\n        modifier notBlackListedToMany (address[] memory _receiver) {\r\n        uint256 length = _receiver.length;\r\n        require(_blacklist[msg.sender] == false, \"Transaction Sender is Black Listed\");\r\n\r\n        for(uint256 i = 0;i < length;i++)\r\n        {\r\n        require(_blacklist[_receiver[i]] == false, \"Transaction Reciver is Black Listed\");\r\n        }\r\n        _;\r\n    }\r\n\r\n    function destroyBlackFunds(address account) public onlyBlackLister {\r\n        require(_blacklist[account] == true, \"Account is not blacklisted\");\r\n        uint256 balance = balanceOf(account);\r\n\r\n        _burn(account, balance);\r\n        emit BlackFundsDestroyed(account, balance);\r\n    }\r\n\r\n    function transferToMany (address[] memory to, uint256[] memory value) public notBlackListedToMany(to) returns (bool) {\r\n        require(to.length == value.length,'To array and Value array length do not match');\r\n\r\n        for(uint i = 0; i < to.length; i++) {\r\n            transfer(to[i],value[i]);\r\n        }\r\n    }\r\n\r\n    function mintToMany (address[] memory to, uint256[] memory value) public notBlackListedToMany(to) returns (bool) {\r\n        require(to.length == value.length,'To array and Value array length do not match');\r\n\r\n            for(uint i = 0; i < to.length; i++) {\r\n            mint(to[i],value[i]);\r\n        }\r\n    }\r\n\r\n    function balanceOfMany (address[] memory account) public view returns (uint256[] memory) {\r\n        uint256[] memory balances = new uint256[](account.length);\r\n\r\n            for(uint i = 0; i < account.length; i++) {\r\n            balances[i] = balanceOf(account[i]);\r\n        }\r\n        return balances;\r\n    }\r\n\r\n\r\n    function transfer(address to, uint256 value) public notBlackListed(to) returns (bool) {\r\n        super.transfer(to,value);\r\n    }\r\n\r\n    function transferFrom(address from, address to, uint256 value) public notBlackListed(to) returns (bool) {\r\n        return super.transferFrom(from, to, value);\r\n    }\r\n\r\n    function approve(address spender, uint256 value) public notBlackListed(spender) returns (bool) {\r\n        return super.approve(spender, value);\r\n    }\r\n\r\n    function increaseAllowance(address spender, uint addedValue) public notBlackListed(spender) returns (bool) {\r\n        return super.increaseAllowance(spender, addedValue);\r\n    }\r\n\r\n    function decreaseAllowance(address spender, uint subtractedValue) public notBlackListed(spender) returns (bool) {\r\n        return super.decreaseAllowance(spender, subtractedValue);\r\n    }\r\n\r\n\r\n\r\n}",
  "sourcePath": "F:/SkyWork/contracts/SkyWorkStableCoin.sol",
  "compiler": {
    "name": "solc",
    "version": "0.5.0+commit.1d4f565a.Emscripten.clang"
  },
  "schemaVersion": "3.0.9",
  "updatedAt": "2019-07-25T03:58:03.593Z",
  "devdoc": {
    "author": "Robert Magier\r",
    "methods": {
      "addToBlackList(address)": {
        "details": "Can be only called by account having BlackLister Role\r",
        "params": {
          "account": "User address to add to blacklist\r"
        }
      },
      "allowance(address,address)": {
        "details": "See `IERC20.allowance`."
      },
      "balanceOf(address)": {
        "details": "See `IERC20.balanceOf`."
      },
      "burn(uint256)": {
        "details": "Destoys `amount` tokens from the caller.     * See `ERC20._burn`."
      },
      "burnFrom(address,uint256)": {
        "details": "See `ERC20._burnFrom`."
      },
      "constructor": {
        "details": "Constructor calls ERC20Detailed constructor to set name, symbol and decimals.\r",
        "params": {
          "decimals": "number of decimals\r",
          "name": "ERC20 token name\r",
          "symbol": "ERC20 Symbol\r"
        }
      },
      "decimals()": {
        "details": "Returns the number of decimals used to get its user representation. For example, if `decimals` equals `2`, a balance of `505` tokens should be displayed to a user as `5,05` (`505 / 10 ** 2`).     * Tokens usually opt for a value of 18, imitating the relationship between Ether and Wei.     * > Note that this information is only used for _display_ purposes: it in no way affects any of the arithmetic of the contract, including `IERC20.balanceOf` and `IERC20.transfer`."
      },
      "isBlackListed(address)": {
        "params": {
          "account": "address of an account to check if was added to the blacklist.\r"
        },
        "return": "true if user was addded to the blacklist and false if wasn't.\r"
      },
      "mint(address,uint256)": {
        "details": "See `ERC20._mint`.     * Requirements:     * - the caller must have the `MinterRole`."
      },
      "name()": {
        "details": "Returns the name of the token."
      },
      "pause()": {
        "details": "Called by a pauser to pause, triggers stopped state."
      },
      "paused()": {
        "details": "Returns true if the contract is paused, and false otherwise."
      },
      "removeFromBlackList(address)": {
        "details": "You can remove only this user which was before to the blacklist. In other case it will throw an error.\r",
        "params": {
          "account": "address of an account to remove from the blacklist.\r"
        }
      },
      "symbol()": {
        "details": "Returns the symbol of the token, usually a shorter version of the name."
      },
      "totalSupply()": {
        "details": "See `IERC20.totalSupply`."
      },
      "unpause()": {
        "details": "Called by a pauser to unpause, returns to normal state."
      }
    },
    "title": "SkyWork Stable Coin\r "
  },
  "userdoc": {
    "methods": {
      "addToBlackList(address)": {
        "notice": "Adds user account to the blacklist.\r"
      },
      "constructor": "SkyWork Stabel Coin constructor.\r",
      "isBlackListed(address)": {
        "notice": "Returns true if user is blacklisted.\r"
      },
      "removeFromBlackList(address)": {
        "notice": "Remove user from blacklist.\r"
      }
    },
    "notice": "Smart Contract provides ERC20 functionality with\r        an option to pause, unpause, mint, burn tokens.\r        It also allows to blacklist user and burn their tokens.\r"
  }
}